:400000000010002011000000650B0000650B000080B500AF00F0AAFD80B584B000AF021CFB1D1A70224A3B1C0B3312781A70214A3B1C0A3312781A701F4B1B68013BFB60A0
:400040001AE01E4B1868391C0B31FA68131C5B009B18C31801331B780B70184B1868391C0A31FA68131C5B009B18C31802331B780B70FB68013BFB60FB68002B0ADB0F4B59
:400080001968FA68131C5B009B185B5CFA1D12789A42D6D90A4B3A1C0B3212781A60094B3A1C0A3212781A60BD4604B080BDC046CCF1FF0FCDF1FF0F44240000D00000207E
:4000C0001CFF0B4020FF0B4080B500AF194B194A12688021C9020A431A601820FFF79CFF154B19221A60052001F08AF9134B144A1278D2B21A60052001F000FD0D4B0D4A5B
:400100001168104A0A401A600F4B10221A600F4B20221A600E4B802212061A600D4B802212061A600C4B0D4A1A600D4B0D4A1A60BD4680BD00010B402CFF0B4028FF0B402E
:40014000E5F1FF0FFFFFFBFF080202403002024008010B4004010B40000002400300008040000240EF00008080B582B000AF72B6FB1D00221A7023E0FB1D1A78131C5B0050
:400180009B185B00404A9B183B603B681A78597809020A43997809040A43DB781B0613431A1C3B6819795B791B020B439BB2101C191C00F05FFDFB1DFA1D127801321A70AC
:4001C000FB1D1B78012BD7D9304A314B101C191C00F060FD2F4B802252001A802E4B01221A702E4B2E4A1A602E4B03221A602E4BEE2212021A602D4BEE221A602C4BFF2272
:400200001A602C4B2C4A1A602C4B01221A602C4B06221A602B4BD82212011A602A4B03221A602A4B24221A60294B2A4A1A602A4B822212061A60294B294A1A60294B9922CD
:4002400012041A60284BC02292021A60274B992212041A60264B264A1278D2B202210A43D2B21A70224B224A1278D2B206210A43D2B21A701F4B44221A70FFF725FF00F094
:4002800049FDBD4602B080BD302200003C2200005C22000000600F4002600F400000014033333003040001400C000140100001400000044008000440B62D5B0000010440A8
:4002C0000801044008030440000404400804044000500F400400990004500F4008500F4000004B3410500F4018500F4030500F4000700F40DB300F4010B5064C2378002B9A
:4003000007D10548002802D0044800E000BF0121217010BDE800002000000000C021000008B5084B002B03D00748084900E000BF07480168002903D0064A002A00D0904728
:4003400008BDC04600000000C0210000EC000020C80000200000000080B500AF62B600F0F3FC2F4B1B78DBB2181C00F0B7FE00F029FE00F0F5FE00F083FF2A4B181C012158
:4003800000F0E6FD284B181C012100F0C1FD012001F05CFA0020032101F020FAC82001F0ADFB224B1B78FF2B06D0204B1B780C3BDBB2DAB21E4B1A701C4B5B78FF2B25D011
:4003C0001A4B5B78EE2B17D01A4B01221A6000F077F8031C1A1C144B1A70134B1A78164B5A70154A114B101C191C032200F04CFF021C124B1A6009E0114B01221A600A4B63
:40040000FF221A70094B9A780E4B1A7000F012F9082001F0A7FA042001F048FAF6E7C0460401002030010020CC000020C42100000C010020140100201001002034010020AA
:40044000180100203201002080B582B000AFFB1DFF221A7000F01EFD021C0123134003D000F090FD00F020FD00F014FD021C1023134017D000F032FD00F08EFD00F082FD85
:40048000FB1D0B4A12781A700A4BFA1D12789A70084A094B101C191C032200F0F5FE021C064B1A60FB1D1B78181CBD4602B080BD3001002010010020C42100003401002036
:4004C00080B582B000AFFB1D00221A70194B1B78DBB25BB21A1C0C32174B134004D5013B04225242134301331A1CFB1D1A70FB1D1B78032B02D1FB1D04221A700D4B1B78D8
:40050000DBB25BB2073BDA179B185340181C032101F012FE0B1C1B01DAB2FB1D1B781343DAB2FB1D1A70FB1D1B78181CBD4602B080BDC0460C0100200300008080B500AFE6
:40054000334B1B78DBB2DAB2324B1B78DBB2DBB2D31ADBB2DAB2304B1A702F4B1B78DBB25BB2062B0EDD2A4B1B78DBB2DAB2294B1B78DBB2DBB2D31ADBB20C3BDBB2DAB23D
:40058000254B1A70244B1B78DBB25BB206330EDA1F4B1B78DBB2DAB21E4B1B78DBB2DBB2D31ADBB20C33DBB2DAB21B4B1A701A4B1B78DBB2002B29D0174B1B78DBB25BB25E
:4005C000002B0CDA154B03221A70134B1B78DBB2DBB25B42DBB2DAB20F4B1A7002E00F4B02221A700E4B02221A600E4BEE221A700C4B1A780C4B5A700B4A0C4B101C191C4B
:40060000032200F041FE021C094B1A60BD4680BD2C0100200C0100200D0100200401002008010020CC00002010010020C42100003401002090B583B000AFFB1DCB4A12780F
:400640001A70FFF701FF031C1A1CC94B1A70FB1D1B780C2B00D9FDE09A00C64BD3181B689F46C54B1B68012B03D1C04B0C221A70F0E0BF4B1B78DBB2102B03D1BB4B0122E9
:400680001A70E7E0BA4B1B78DBB2002B03D1B74B02221A70DEE0B64B1B78DBB2112B03D1B24B03221A70D5E0B14B1B78DBB2122B03D1AE4B04221A70CCE0AD4B1B78DBB22B
:4006C000142B03D1A94B05221A70C3E0A84B1B78DBB2212B03D1A54B06221A70BAE0A44B1B78DBB2222B03D1A04B07221A70B1E09F4B1B78DBB2242B03D19C4B08221A7009
:40070000A8E09B4B1B78DBB2202B03D1974B09221A709FE0954B0B221A709BE0934B0A221A7097E0914B0A221A7093E08F4B0A221A708FE08D4B0A221A708BE08B4B0A22DA
:400740001A7087E0894B0A221A7083E0874B0A221A707FE0854B0A221A707BE0834B0A221A7077E0854B1B68002B0BD17F4B0B221A70814B1B68012B00D068E07B4B0C2296
:400780001A7064E0794B0A221A7060E0774B00221A705FE0754B01221A7000F063FD031C002B56D1764B1B78DBB2102B03D16F4B01221A704DE0724B1B78DBB2002B03D176
:4007C0006A4B02221A7044E06D4B1B78DBB2112B03D1664B03221A703BE0694B1B78DBB2122B03D1614B04221A7032E0644B1B78DBB2142B03D15D4B05221A7029E0604BCD
:400800001B78DBB2212B03D1584B06221A7020E05B4B1B78DBB2222B03D1544B07221A7017E0574B1B78DBB2242B03D14F4B08221A700EE0524B1B78DBB2202B03D14B4B60
:4008400009221A7005E0494B0B221A7001E0C04600E0C046FB1D1B780C2B00D95EE19A00484BD3181B689F4600F0FCFC031C002B06D1454B01221A70444B10221A7015E0C6
:40088000434B1B78DBB25BB2002B03DA3E4B02221A7002E03C4B03221A703C4BEE221A703C4B00221A70354B01221A60374B1A78394B5A70384A394B101C191C032200F0D7
:4008C000E3FC021C364B1A6028E1364B00221A702F4B1B78DBB25BB20133181C032101F02BFC0B1C01330BD0294B1B78DBB25BB20133181C032101F01FFC0B1C022B03D1E8
:40090000284BFF221A701AE0214B1B78DBB25BB20133181C032101F00FFC0B1C02330BD01B4B1B78DBB25BB20133181C032101F003FC0B1C012B02D11A4B01221A70144BA1
:400940001B78DBB2DAB2174B1B78DBB2DBB2D318DBB2DAB20F4B1A70FFF7F0FDDEE00D4BFD221A70FFF7EAFDD8E0C0461C01002031010020C82100001801002008010020BD
:4009800032010020FC21000004010020CC0000200C0100202C01002010010020C4210000340100200D010020634B06221A70FFF7C5FDB3E0604B03221A70FFF7BFFDADE05F
:4009C0005D4B05221A70FFF7B9FDA7E05A4B02221A70FFF7B3FDA1E0574BFF221A70FFF7ADFD9BE0544BFC221A70FFF7A7FD95E0524B1B68012B06D100F034FC031C002BA6
:400A000001D1012300E000231A1C01231340DCB24A4B1B68022B0FD100F0DEFB031C191C474B1B78DBB25AB2131C5B009B185B01994201DB012300E000231A1C012313405E
:400A4000DBB22343DBB2002B63D03B4B1B78DAB23C4B1A703B4B1B78DBB2DBB20C33DAB2394B1A70384A394B101C191C032200F00BFC021C364B1A60364B1B68002B0ED12C
:400A80002E4B1B68012B06D1334B10221A70314B01221A6009E0304BFF221A7005E0FFF70FFD031C1A1C2C4B1A702B4B1A78264B5A70254A254B101C191C032200F0E4FB21
:400AC000021C234B1A601D4B00221A60234B01221A701EE000F0DEF9021C332313401AD100F064FA012000F0C9FE01F01BF800F063FA62B6012000F0A9FE0CE0114B1B7838
:400B0000DBB2002B09D1164B00221A6005E0C04604E0C04602E0C04600E0C0460F4B1B78DBB2181C00F0DAFA0B4B1A78064B5A70BD4603B090BDC0462C010020080100208F
:400B40000D0100200C01002010010020C42100003401002014010020CC000020040100201801002080B500AFFEE7C04680B586B000AF254B7B61254B3B61234B7B61234B37
:400B80003B6132E03B691B68FB603B695B68BB603B699B683B6000237B600CE0FB681A68BB681A60BB680433BB60FB680433FB607B6804337B607A683B689A42EED13B69B2
:400BC000DB683B6000237B6008E0BB6800221A60BB680433BB607B6804337B607A683B689A42F2D13B6910333B617B695A1E9341DBB27A69013A7A61002BC3D101F0A8FA59
:400C0000FFF7AAFBFEE7C046010000006C24000080B582B000AF00237B600FE07B68032B04D8104B7A689200D35800E00E4B0F4A796889008B507B6801337B607B682F2BAD
:400C4000ECD9FFF791FA0A4B00221A608023DB058022D205126801210A431A60BD4602B080BDC04600000000650B000000000020C000002080B582B000AF786039607A680D
:400C80003B68101C00211A1C01F091FABD4602B080BDC04680B586B000AF7860396000233B6100237B612EE07B699B007A68D3181B68BB603B1C0F33BA681A70BB68FF22D0
:400CC0009343BB6017E03B695B003A68D3181B781A1CBB68D3183A69520039688A1852781A703B6901333B613B1C0F333A1C0F321278013A1A703B1C0F331B78002BE2D120
:400D00007B6901337B617B69072BCDD9BD4606B080BDC04680B500AFBD4680BD80B500AF00F02CF8BD4680BD80B500AF054B054A1268802109060A431A6000F017F8BD4635
:400D400080BDC0460000064080B500AF064B1B78002B04D1FFF7E2FF034B01221A70FFF7E3FFBD4680BDC0462001002080B500AF0A2000F08DFEBD4680BDC04680B500AF3E
:400D8000254B802252001A60244B254A1A60254B244A12680C210A431A60234B234A1A60234B00221A60234B234A1A60234B1F4A1A60234B00221A600A2000F07FFE0A20E1
:400DC000032100F011FE1F4B0A20191C00F0E6FD1D4B00221A601D4B00221A601C4B1D4A1A601D4B00221A601C4B00221A601C4B00221A601B4B10221A701B4B00221A70A6
:400E00001A4B00221A601A4B00221A60194B00221A70BD4680BDC04600000640600006407608004070000640000306400701008004030640100306402400FE000002064019
:400E400004020640591B0000C80E0640880E0640480F06404B010000080F0640C80F0640880F064038010020500100203C010020400100205C01002080B500AF024B012221
:400E80001A60BD4680BDC046880E064080B500AFBD4680BD80B500AF024B1B78DBB2181CBD4680BD5001002080B582B000AF0A4B1B78DBB21A1C0F2313407B60064B1B7837
:400EC000DBB20D229343DAB2034B1A707B68181CBD4602B080BDC0465001002080B582B000AF0A4B1B78DBB21A1CF02313407B60064B1B78DAB22F231340DAB2034B1A7001
:400F00007B68181CBD4602B080BDC0465001002080B582B000AF786039607B68002B0BD0074B7A681A60074B3A681A60064B00221A60064B00221A60BD4602B080BDC046D3
:400F40004C010020480100203C0100205401002080B582B000AF786039607B68002B08D0054B7A681A60054B3A681A60044B00221A60BD4602B080BD580100204401002089
:400F80004001002080B500AF024B00221A60BD4680BDC0463C01002080B500AF024B00221A60BD4680BDC0464001002080B500AFFFF762FFBD4680BD80B500AFFFF766FF32
:400FC000BD4680BD80B500AF064B1B78002B04D100F00AF8034B01221A7000F03FF8BD4680BDC0462801002080B582B000AF164B1B78DAB2FB1D3F218A431A70124BFA1D6D
:40100000127809210A43D2B21A70104B0F4A1278D2B201210A43D2B21A700D4B0C4A1278D2B201210A43D2B21A700A4B181C00F025F8084B181C00F031F8074B181C00F07D
:401040003DF8BD4602B080BD72000F4092000F4093000F40E7030000F301000080B500AF054B054A1278D2B2802149420A43D2B21A70BD4680BDC04672000F4080B582B061
:4010800000AF021CBB1D1A80034BBA1D12881A80BD4602B080BDC04604100F4080B582B000AF021CBB1D1A80034BBA1D12881A80BD4602B080BDC04684100F4080B582B0FC
:4010C00000AF021CBB1D1A80034BBA1D12881A80BD4602B080BDC04644100F4080B582B000AF021CFB1D1A70034BFA1D12781A70BD4602B080BDC04671000F4090B583B03E
:4011000000AF00F0A1F8124B181C00F07DF8002000F052F8002000F035F800F043F8802000F082F8FC1D00F074F9031C2370094B084A1278D2B210210A43D2B21A70FB1D35
:401140001B78181C00F069F9BD4603B090BDC046FFFF000091000F4080B500AFBD4680BD80B500AF064B1B78002B04D1FFF7C6FF034B01221A70FFF7EFFFBD4680BDC046A3
:401180002901002080B582B000AF021CFB1D1A70034BFA1D12781A70BD4602B080BDC04681000F4080B500AF024B1B78DBB2181CBD4680BD61000F4080B582B000AF021C25
:4011C000BB1D1A80034BBA1D12881A80BD4602B080BDC04600100F4080B500AF034B1B78034B1B889BB2181CBD4680BD00000F4080100F4080B500AF024B1B889BB2181CD3
:40120000BD4680BD80100F4080B582B000AF021CBB1D1A80034BBA1D12881A80BD4602B080BDC04640100F4080B582B000AF021CBB1D1A80034BBA1D12881A80BD4602B045
:4012400080BDC04660100F4080B500AF01E0FFF7D1FFFFF7A7FF031C1A1C40231340F6D1BD4680BD80B500AF044B1A68022313405B08DBB2181CBD4680BDC0460400044054
:4012800080B500AFBD4680BD80B5ACB000AFF860B9607A60BB689820C0190360BA687B68D218554B9A4200D98BE09821C9190B68DB0B9422D21913609820C0190368DA09D2
:4012C000FF231340AC21C9190B609422D21913681A02AC20C0190368D318DB019C21C9190B600023A422D21913600023A020C01903605AE00023A821C9190B603CE09C2392
:40130000DB191A689820C01903689A421AD3A421C9190A687B689A4214D2FA68A420C0190368D3181A78391C1431A820C0190368CB181A70A421C9190B680133A422D219BB
:4013400013600BE09C20C01903681B78DAB2391C1431A820C0190368CB181A709C21C9190B6801339C22D2191360A820C01903680133A821C9190B60A822D21913687F2B4B
:40138000BDD9AC23DB191A683B1C1433101C191C00F0C8F8031CA020C0190360AC21C9190B680133AC22D2191360A423DB191A687B689A4209D2A020C0190368002B99D097
:4013C00003E00123A021C9190B60A022D2191368002B09D0A020C0190368012B04D001235B42A021C9190B60A022D2191368181CBD462CB080BDC046FF7F000000000000DD
:401400000230800804D0C0460138FDD1C046C0467047EFF3108072B6704780F31088704780B582B000AF7860034B1A687B681A60BD4602B080BDC04608010B4080B582B06D
:4014400000AF7860034B7A6812681A60BD4602B080BDC04608010B4080B582B000AF786039600A4B3A681A60094B7A68802109060A431A60C046064B1B68002BFBDB034BA7
:401480001B68181CBD4602B080BDC046080000400400004080B584B000AF786039603B1C0C33B6221A703B68DBB22D3BDAB23B1C0C335A707B689AB23B1C0C335A803A68AB
:4014C0003B1C0C33101C191CFFF7C6FF031C181CBD4604B080BDC04680B582B000AF104B1B687B6000233B600BE07B681B0F1A07F0231B069A4201D17B683B60084B1B6811
:401500007B607B681B0F1A07A0231B069A4202D03B68002BE9D03B68181CBD4602B080BD0800004090B5B1B000AF786039600023BC20C01903600023A421C9190B6000231F
:40154000B822D21913600023B420C01903600023B021C9190B600023AC22D21913607B68FF2B00D909E13B68002B00D105E13B1C0C33B6221A703B1C0C33D7225A703B1C73
:401580000C3300229A707B681B0ADAB23B1C0C33DA703B1C0C337F225A603B1C0C331A1C08323B68101C191C802200F0F7FD0023A820C019036030E03B1C0C33A821C91953
:4015C0000A6802329200D358A022D2191360A020C0190368002B19D0B021C9190A68A020C0190368D318B021C9190B60AC23DB191A68A020C01903681343AC21C9190B6065
:40160000A822D2191368B820C0190360A821C9190B680133A822D2191360A820C01903681F2BC9D9B021C9190B68002B06D1AC22D2191368002B01D0012300E00023A420B1
:40164000C0190360A421C9190B68002B13D03B1C0C33B820C019026802329200D358B421C9190B603B1C0C33B820C0190268023292000021D1503B1C0C330420191CFFF7A4
:40168000EBFEFFF729FF031CBC21C9190B60BC22D2191368002B74D13C1C9F34FFF7B9FE031C23703B1C9433181CFFF7B9FE7B68181C0521FFF7EEFE031C9820C01903606B
:4016C0009821C9190A68A0231B069A4205D09822D2191368BC20C0190360BC21C9190B68002B3ED1A422D2191368002B39D03B1C0C330833181C0021802200F058FD3B1CE0
:401700000C33B820C019026802329200B420C0190168D1503B1C0C330420191CFFF79CFEFFF7DAFE031CBC21C9190B60BC22D2191368002B15D17B68181C0621FFF7AAFE8B
:40174000031C9820C01903609821C9190A68A0231B069A4205D09822D2191368BC20C01903603B1C9433181CFFF768FE3B1C9F331B78181CFFF751FE03E00123BC21C919D3
:401780000B60BC22D2191368181CBD4631B090BD80B500AF044B044A1268802109060A431A60BD4680BDC04604010B4080B582B000AF78607B68022B02D9002000F094F997
:4017C000054B1A687B68DB000133DA4001231340181CBD4602B080BD10020B4080B584B000AF786039607B68022B02D9002000F07BF9144B1B68002B01DBFFF7C9FF7B688F
:40180000181CFFF7D3FF031C002B18D10E4B1B687A68D2000321081C9040021CD2431340FB603A6803231A407B68DB00111C99400B1CFA681343FB60034BFA681A60BD46A3
:4018400004B080BD04010B400C020B4080B582B000AF7860074B1B68002B01DBFFF798FF054B054A11687A680A431A60BD4602B080BDC04604010B4010020B4080B582B0AA
:4018800000AF7860074B1B68002B01DBFFF780FF054B054A12687968C9430A401A60BD4602B080BD04010B4010020B4090B585B000AF78603C1C0B34FFF7ABFD031C2370FF
:4018C000224B1B68002B01DBFFF762FF204B1A68C0231B021A40C0231B029A4214D10123FB601B4B1A4A11681A4A0A408021C9010A431A60164B164A1168164A0A4080216B
:4019000009020A431A6001E00023FB607A68124B13407B60114B114A1168114A11407A680A431A60FB68012B06D1094B084A1268C02109020A431A603B1C0B331B78181CEF
:40194000FFF76BFDBD4605B090BDC04604010B4000010B40FF3FFFFF0404040010020B40FBFBFBFF80B582B000AF7860084B1B68002B01DBFFF70CFF064B064A1168786807
:40198000054A02400A431A60BD4602B080BDC04604010B4010020B400808080080B584B000AF021C3960FB1D1A7080239B05FB60FB1D1B781F2B02D9002000F095F8FB1D7E
:4019C0001B7810339B00FA68D3181B68BB60FB1D1B7810339B00FA68D3183A681A60BB68181CBD4604B080BD90B587B000AF0A1CFB1D011C1970BB1D1A70BB1D1B78032B44
:401A000002D9002000F070F8FB1D1B781F2B02D9002000F069F8FB1D1A7803231340DB0006337B613C1C1334FFF7F3FC031C2370FB1D1B789B08DBB29B0014495B181B6800
:401A4000FB607B690322111C99400B1CDA43FB681340FB60BB1D1A787B69111C99400B1CFA681343FB60FB1D1B789B08DBB29B00064A9B18FA681A603B1C13331B78181C60
:401A8000FFF7CBFCBD4607B090BDC04600E400E080B582B000AF021CFB1D1A70064BFA1D11781F220A400121081C9040021C1A60BD4602B080BDC04600E100E080B582B078
:401AC00000AF021CFB1D1A70064BFA1D11781F220A400121081C9040021C1A60BD4602B080BDC04680E100E080B582B000AF021CFB1D1A7001BEBD4602B080BD80B582B026
:401B000000AF021CBB1D1A80BB1D1B88044A12785343181CFFF774FCBD4602B080BDC046DC00002090B583B000AFFC1DFFF771FC031C2370074B074A126804218A431A6011
:401B400030BFFB1D1B78181CFFF767FCBD4603B090BDC04610ED00E080B582B000AF00233B60D94B1B68002B02D0D74B1B689847D64B1A680123134002D0D54B00221A60B4
:401B8000D44B1B78DAB220231340DBB2002B31D1D14B1A68D14B13402CD0CE4B1B78DAB201231340DBB2002B10D0CD4B1B78DBB202229343DAB2CA4B1A70C94B1B78DBB2B6
:401BC00009221343DAB2C64B1A7010E0C44B1B78DBB220229343DAB2C14B1A70C04B1B78DBB2702252421343DAB2BD4B1A70B94B00221A70B74B1B78DAB220231340DBB22B
:401C0000002B00D00FE2B34B1B78DAB210231340DBB2002B00D1D8E1AF4B1A680223134056D0B04B02221A60AF4B1A680F231A40AD4B196880231B020B4001D0012300E0BF
:401C40000023D3187B60A94B1B78DBB21A1C7B689A4208D9A24B1B78DBB204221343DAB29F4B1A700AE0A14B1B78DBB21A1C7B68D21A9F4B1B68D2189D4B1A609C4B1A68EB
:401C80009C4B1A609C4B00221A60984B00221A709A4B9A4A1268802149020A431A60974B964A1168964A0A401A608D4B1B78DBB202229343DAB28A4B1A70894B1B78DBB20B
:401CC00001221343DAB2864B1A70824B10221A70814B1A680823134048D0824B08221A60884B1A6880239B01134019D00DE0864B1A68864B1B68D218854B1B68DBB21370F5
:401D0000824B1B685A1C814B1A60824B1A680F231340ECD17B4B7B4A11687F4A0A401A607E4B1A682023134007D06D4B1B78DBB240221343DAB26A4B1A70794B00221A6002
:401D4000764B784A1A60664B1B78DBB220229343DAB2634B1A70624B1B78DBB210221343DAB25F4B1A705B4B10221A705A4B1A68402313404DD06C4B1A681023134012D0A7
:401D80005D4B10221A605B4B1A68594B1A60544B1B78DBB202221343DAB2514B1A704D4B11221A702CE0614B1A68584B1B68D31A7B607B68072B03D8594B04221A6014E0F9
:401DC0007B68082B07D14F4B4E4A1268A02109020A431A6009E04B4B4A4A1268802189010A431A604E4B08221A603D4B1B78DBB220221343DAB23A4B1A70364B12221A70E0
:401E00004B4B01221A60374B4A4A1A604A4B01221A604A4B1A680823134036D0434B1A683A4B1B68D31A083B7B607B68082B04D908237B6000233B6013E001233B6010E096
:401E4000314B1A68314B1B68D218314B1B68DBB213702E4B1B685A1C2C4B1A607B68013B7B607B68002BEBD13B68002B09D0254B244A1268802109020A431A60284B00223E
:401E80001A60264B08221A6068E02C4B1A680423134063D01E4B1B687B601C4B1A68234B1B689A424CD2244B01221A60164B1A68164B1B68D3187A68D2B21A70134B1B687B
:401EC0005A1C124B1A6046E0240100208C0E0640880E0640380100204C0F06400101000050010020400F0640080206405C010020540100203C010020880F064004020640A4
:401F0000FFFFFEFF6000064058010020400100204003064008030640FF5FFFFFC00F0640C80F0640ED0F00006400064044010020800E0640FF0F00006C000640CC0F0640FE
:401F40003A4B02221A603A4B1B78DBB240221343DAB2374B1A70374B04221A60364B1A68102313405FD026E0344B1A68344B1B689A420ED2334B344A1168304A12688A189F
:401F80001278D2B21A602D4B1B685A1C2B4B1A6011E02C4BFF221A602C4B1B78DAB220231340DBB2002B06D1284B1B78DBB20133DAB2264B1A70264B1A680F231340082B81
:401FC000D2D1244B10221A602DE0234B224A1268520052081A60214B10221A70204B204A1168204A0A401A601D4B1D4A11681E4A0A401A601D4B00221A601D4B00221A607C
:40200000144B1C4A1A600B4B1B4A1A601B4B1C4A1A601C4B1C4A1A600F4B0F4A1268802109060A431A60BD4602B080BD6C00064050010020C00F06408C0F0640540100207B
:4020400048010020400206404C0100205C01002008020640800F0640000006403801002060000640FF5FFFFFFFFCFFFFC80F0640880F0640ED0F0000F3070000400F064041
:40208000FF0F0000000F064017030000002941D010B4041C4C40A44601230022002900D54942002800D5404288422CD301242407A14204D2814202D209011B01F8E7E4006F
:4020C000A14204D2814202D249005B00F8E7884201D3401A1A434C08A04202D3001B5C0822438C08A04202D3001B9C082243CC08A04202D3001BDC082243002803D01B094C
:4021000001D00909E3E7101C6446002C00D5404210BC7047002806D003DB0020C043400801E08020000607B4024802A14018029003BDC046190000000029EBD003B5FFF745
:40214000A7FF0EBC4243891A1847C0467047C04670B50E4B0E4D0024E81A85101E1CAC4204D0A100725890470134F8E700F06CF90849094A0E1C541AA5100024AC4204D093
:40218000A300F05880470134F8E770BD5424000054240000542400005C24000010B50023934203D0CC5CC4540133F9E710BD00B58218031C934202D019700133FAE700BD23
:4021C00000000000FFFFFF00620600001C070000240700002C070000340700003C070000440700004C070000540700005C070000640700008C070000940700000E0B00006D
:4022000068080000CA0800005E090000A8090000B4090000C0090000CC090000D8090000E4090000F0090000D40A0000FC0A000000300F40000400400F40000402000F40D7
:4022400048300F402C310F403D320F4025330F4010400F400A410F4002600F40710381674014410649FF4AFF4BFF4DA04F0150185A045F016040628064406540668068400E
:402280006A506BA86C406D206E506FA88101820C86028C0294089702A401A501A602B001B204B408B501B602B702B928BE51BF14C014C106C54CC620C75EC83FC9FFCAFF99
:4022C000CBFFCDAFCE07CF01D018D407D804D904DA04DB04DE80DF05E040E280E440E540E680E840EA50EBA8EC40ED20EE50EFA80504068007020D0817041C411D8A1E0852
:40230000261827022F1035043D02404145824A084D024E084F04568A57105E485F106330660867046F0E7F0881048A108D01C0B0C220C420CA40CC40CE80D099D224D67035
:40234000D860DE20E010E280000201010C02110117021E011F02200226012E0130023201330237013E014020410549FF4AFF4BFF4DA04F0450185280580459045A045B045E
:402380005F01604062C06440654066C068C06AC06CC06EC0C030C105C601C720C824C9FFCAFFCBFFCDAFCE0FCF04D018DA04DF01E040E2C0E440E540E6C0E8C0EAC0ECC0B4
:4023C000EEC0050206020D8017461D041E4024102722350237443E024010472048024E025002518052027740964099029A029B049D04A902AF10B208B70AC090C280C4B091
:40240000CCD0CE80D022D218EA10EEC00B400E0250045402562058405C016608820888408E01C290D4E0D6A0D880E6805402A002A801AF40B002B404B620D620EA80EC40D9
:402440001001110104000000F8B5C046F8BC08BC9E46704721030000110C0000F8B5C046F8BC08BC9E467047F902000080240000C800002020000000780000000000000049
:4024800000000000FF000000C0F1FF0F00366E01C05D0000180000000000E02E00000000000000000000000000000000000000000000000000000000000000000000000076
:4024C00000000000000000000000000000000000000000000000000000000000000000000000000000000000000000000000000000000000000000000000000000000000DC
:40250000000000000000000000000000000000000000000000000000000000000000000000000000000000000000000000000000000000000000000000000000000000009B
:40254000000000000000000000000000000000000000000000000000000000000000000000000000000000000000000000000000000000000000000000000000000000005B
:40258000000000000000000000000000000000000000000000000000000000000000000000000000000000000000000000000000000000000000000000000000000000001B
:0200000490303A
:0200000029BA1B
:0200000490402A
:200000000000000000000000000000000000000000000000000000000000000000000000E0
:0200000490501A
:0C000000000204C81193110104D43B4D10
:0200000490600A
:0100000001FE
:00000001FF